S01700004763634170706C69636174696F6E332E7372656359
S11300000C9434000C945B000C9446000C94460051
S11300100C9446000C9446000C9446000C94460044
S11300200C9446000C9446000C9446000C94460034
S11300300C9446000C9446000C9446000C94460024
S11300400C9446000C9446000C9446000C94460014
S11300500C9446000C9446000C9446000C94460004
S11300600C9446000C94460011241FBECFEFD8E038
S1130070DEBFCDBF21E0A0E0B1E001C01D92A430FD
S1130080B207E1F70E94CC000C94CF000C9400005E
S11300908AB1837F8AB98BB18C608BB984B1806259
S11300A084B9E9E6F0E08081816080838DB381606A
S11300B08DBB789408951F920F920FB60F9211245E
S11300C02F933F934F935F938F939F9349B142FB39
S11300D0882780F990E049B143FB222720F930E0DA
S11300E0880F991F282B392B8091000190910101D1
S11300F0880F991F880F991F822B932B8D309105A0
S113010049F08430910531F08230910519F08B303B
S1130110910551F440910201509103014F5F5F4FEB
S113012050930301409302018E30910541F08730D2
S1130130910529F08130910511F0089749F48091D7
S113014002019091030101979093030180930201AE
S113015030930101209300018091020190910301E9
S11301600A973CF48091020190910301873F9F4FCD
S113017044F495B180E2892785B910920301109265
S113018002019F918F915F914F913F912F910F9019
S11301900FBE0F901F9018950E944800FFCFF8944F
S10501A0FFCF8B
S9030000FC
