S01700004763634170706C69636174696F6E322E737265635A
S11300000C9434000C9451000C9451000C94510045
S11300100C9451000C9451000C9451000C94510018
S11300200C9451000C9451000C9451000C94510008
S11300300C9451000C9466000C9451000C945100E3
S11300400C9451000C9451000C9451000C945100E8
S11300500C9451000C9451000C9451000C945100D8
S11300600C9451000C94510011241FBECFEFD8E022
S1130070DEBFCDBF11E0A0E0B1E0E8E0F5E002C0F2
S113008005900D92A430B107D9F721E0A4E0B1E0C6
S113009001C01D92A031B207E1F70E9451010C94F6
S11300A082020C94000010928000E1E8F0E01082DB
S11300B0808183608083EFE6F0E0808181608083CB
S11300C01092850010928400789408951F920F92E4
S11300D00FB60F9211248F939F93AF93BF93809188
S11300E00C0190910D01A0910E01B0910F010196A8
S11300F0A11DB11D80930C0190930D01A0930E01DD
S1130100B0930F01BF91AF919F918F910F900FBE4C
S11301100F901F901895EF92FF920F931F932FB794
S1130120F89480910C0190910D01A0910E01B09171
S11301300F01BC01552744278091840090918500CC
S1130140A0E0B0E07A018B01E82AF92A0A2B1B2BE4
S1130150C801B7012FBF0E94870120E030E040E8CA
S113016050E40E94ED010E9458011F910F91FF90ED
S1130170EF9008958AB1806F8AB98BB180618BB991
S11301808BB180648BB908954F925F926F927F9286
S11301908F929F92AF92BF92CF92DF92EF92FF9293
S11301A00F931F93CF93DF93A0900201B0900301AC
S11301B00091000110910101C0E0D0E0812C912C4C
S11301C05BC00E948B006B017C010E948B004090FD
S11301D008015090090160900A0170900B01A70179
S11301E09601241935094609570925010B2C000CE1
S11301F066087708241535054605570590F0C09222
S11302000801D0920901E0920A01F0920B0121E069
S1130210922621F02BB120622BB903C02BB12F7D84
S11302202BB9C0900401D0900501E0900601F09034
S113023007012B013C014C185D086E087F0868011A
S1130240012E000CEE08FF084C145D046E047F04BC
S113025090F06093040170930501809306019093DC
S1130260070181E0882621F08BB180688BB903C037
S11302708BB18F778BB92196C83CD1050CF4A1CFF3
S1130280DF91CF911F910F91FF90EF90DF90CF906E
S1130290BF90AF909F908F907F906F905F904F90A2
S11302A008950E9453000E94BA000E94C400FDCF2A
S11302B00E94CC0188F09F5798F0B92F9927B75125
S11302C0B0F0E1F0660F771F881F991F1AF0BA95F6
S11302D0C9F714C0B13091F00E94E601B1E008956D
S11302E00C94E601672F782F8827B85F39F0B93F5F
S11302F0CCF3869577956795B395D9F73EF49095A9
S11303008095709561957F4F8F4F9F4F0895E89426
S113031009C097FB3EF490958095709561957F4F49
S11303208F4F9F4F9923A9F0F92F96E9BB279395F7
S1130330F695879577956795B795F111F8CFFAF407
S1130340BB0F11F460FF1BC06F5F7F4F8F4F9F4F38
S113035016C0882311F096E911C0772321F09EE896
S1130360872F762F05C0662371F096E8862F70E0FC
S113037060E02AF09A95660F771F881FDAF7880FD6
S11303809695879597F9089557FD9058440F551FF2
S113039059F05F3F71F04795880F97FB991F61F003
S11303A09F3F79F087950895121613061406551F7A
S11303B0F2CF4695F1DF08C0161617061806991FE6
S11303C0F1CF86957105610508940895E894BB27DB
S11303D066277727CB0197F908950E9400020C94B1
S11303E071020E94630238F00E946A0220F0952391
S11303F011F00C945A020C94600211240C94E7013D
S11304000E94C40170F3959FC1F3950F50E0551FEE
S1130410629FF001729FBB27F00DB11D639FAA2755
S1130420F00DB11DAA1F649F6627B00DA11D661FA4
S1130430829F2227B00DA11D621F739FB00DA11DC5
S1130440621F839FA00D611D221F749F3327A00D7F
S1130450611D231F849F600D211D822F762F6A2F1B
S113046011249F5750409AF0F1F088234AF0EE0F80
S1130470FF1FBB1F661F771F881F91505040A9F7AD
S11304809E3F510580F00C945A020C94E7015F3FA3
S1130490E4F3983ED4F3869577956795B795F795E9
S11304A0E7959F5FC1F7FE2B880F911D9695879561
S11304B097F9089597F99F6780E870E060E00895E0
S11304C09FEF80EC089500240A9416161706180668
S11304D00906089500240A94121613061406050644
S11304E00895092E0394000C11F4882352F0BB0FD5
S11304F040F4BF2B11F460FF04C06F5F7F4F8F4F38
S10B05009F4F0895F894FFCF0A
S10705084006E803BA
S9030000FC
