:100000000C9434000C9448000C9446000C94460068
:100010000C9446000C9446000C9446000C94460048
:100020000C9446000C9446000C9446000C94460038
:100030000C9446000C9446000C9446000C94460028
:100040000C9446000C9446000C9446000C94460018
:100050000C9446000C9446000C9446000C94460008
:100060000C9446000C94460011241FBECFEFD8E03C
:10007000DEBFCDBF21E0A0E0B1E001C01D92A33002
:10008000B207E1F70E943D010C9477010C94000047
:100090001F920F920FB60F9211248F939F9381E0BE
:1000A000809300014A9B11C04B990FC080910101C0
:1000B000909102010196909302018093010185B114
:1000C000806285B98BB18F778BB94A9B11C04B9BEE
:1000D0000FC080910101909102010197909302015C
:1000E0008093010185B18F7D85B98BB180688BB913
:1000F0009F918F910F900FBE0F901F90189587E6DC
:1001000090E09093C5008093C400E1ECF0E0808122
:1001100088618083E2ECF0E0808187708083808159
:100120008660808308950E947F008AB18B7F8AB9A0
:100130008AB1877F8AB984B1806284B98AB18068C4
:100140008AB985B18F7D85B98BB18F778BB9E9E697
:10015000F0E08081836080838DB381608DBB789473
:1001600008959091C00095FFFCCF8093C60008953C
:100170000F931F93CF93DF93CDB7DEB727970FB6BB
:10018000F894DEBF0FBECDBF4AE0BE016F5F7F4F68
:100190000E94420100E010E004C00E94B1000F5F25
:1001A0001F4FE1E0F0E0EC0FFD1FE00FF11F808139
:1001B0008111F3CF8AE00E94B10027960FB6F89420
:1001C000DEBF0FBECDBFDF91CF911F910F9108957C
:1001D00027C085B1806285B92FEF83ED90E3215070
:1001E00080409040E1F700C0000085B18F7D85B967
:1001F0002FEF83ED90E3215080409040E1F700C065
:10020000000080910101909102010E94B8002FEF3F
:1002100081EE94E0215080409040E1F700C0000062
:100220008091010190910201883E93403CF48091BD
:1002300001019091020189319C4F5CF685B1806289
:1002400085B98FEF91EE24E0815090402040E1F796
:1002500000C0000085B18F7D85B98FEF91EE24E05D
:10026000815090402040E1F700C0000080910101E2
:10027000909102010E94B80008950E9493000E948C
:10028000E800FDCFBB274A3031F4992322F4BDE2C8
:10029000909581959F4F0C944E01BB27FB015527EC
:1002A000AA27880F991FAA1FA41710F0A41B8395D3
:1002B0005051B9F7A05DAA3308F0A95DA19300974A
:1002C00079F7B111B1931192CB010C946701DC0164
:1002D000FC01672F71917723E1F7329704C07C917D
:1002E0006D9370836291AE17BF07C8F30895F894B9
:0202F000FFCF3E
:00000001FF
