S01400004B6579626F617264546573742E737265633F
S11300000C9434000C9451000C9451000C94510045
S11300100C9451000C9451000C9451000C94510018
S11300200C9451000C9451000C9451000C94510008
S11300300C9451000C9451000C9451000C945100F8
S11300400C9451000C9451000C9451000C945100E8
S11300500C9451000C9451000C9451000C945100D8
S11300600C9451000C94510011241FBECFEFD8E022
S1130070DEBFCDBF11E0A0E0B1E0E0E7F5E002C0F3
S113008005900D92A039B107D9F721E0A0E9B1E0BC
S113009001C01D92AA39B207E1F70E94AB010C948A
S11300A0B6020C94000087B1836087B98AB1806C72
S11300B08AB987B1837F87B984B18A7F84B988B1CB
S11300C08C6088B985B1856085B90895E0E04AC03F
S11300D088B1836088B98BB1806C8BB9E13051F001
S11300E028F0E23059F0E33069F00FC08BB18F771C
S11300F08BB90BC08BB18F7B8BB907C088B18E7F56
S113010088B903C088B18D7F88B9329909C0F0E0FD
S1130110EE0FFF1FEE0FFF1FE050FF4F8081089589
S1130120339909C0F0E0EE0FFF1FEE0FFF1FE05000
S1130130FF4F818108951A9909C0F0E0EE0FFF1F67
S1130140EE0FFF1FE050FF4F82810895189909C0F8
S1130150F0E0EE0FFF1FEE0FFF1FE050FF4F838113
S11301600895EF5FE43008F4B3CF80E00895282FBA
S113017022952F7030E1839FC0011124922F982B78
S1130180292F2C7C30E03595279535952795937349
S1130190892F90E0880F991F880F991F822B282F91
S11301A02A7A30E035952795857590E0880F991F58
S11301B0822B0895CF93C82F807F90E095958795E3
S11301C0959587950E94B7008BB985B1886085B9EC
S11301D085B18F7E85B98FE39FE10197F1F700C068
S11301E0000085B1877F85B920E1C29FC001112439
S11301F0992795958795959587950E94B7008BB912
S113020085B1886085B985B18F7E85B98FE39FE11B
S11302100197F1F700C0000085B1877F85B9CF91C0
S11302200895CF93C82F807F90E0959587959595F5
S113023087950E94B7008BB985B1886085B985B16F
S1130240806185B98FE39FE10197F1F700C0000059
S113025085B1877F85B920E1C29FC0011124992708
S113026095958795959587950E94B7008BB985B12B
S1130270886085B985B1806185B98FE39FE1019775
S1130280F1F700C0000085B1877F85B9CF9108954B
S11302900F931F93CF93DF938C01D62FC0E007C039
S11302A0F801EC0FF11D80810E941101CF5FCD1781
S11302B0B8F3DF91CF911F910F9108952FEF89EF3C
S11302C090E0215080409040E1F700C0000082E0BF
S11302D00E94DA0088E20E94DA0086E00E94DA00D6
S11302E08CE00E94DA0081E00E94DA008FE39FE153
S11302F00197F1F700C000000895CF93C82F8093B1
S1130300990181E00E94DA0080E80E94DA00C23498
S113031079F018F4C13431F01CC0C33479F0C4341A
S113032099F017C066E080E191E00E94480111C095
S113033064E087E191E00E9448010BC065E08CE134
S113034091E00E94480105C065E081E591E00E94CA
S11303504801CF910895CF93DF931F92CDB7DEB7B5
S11303608AB18C638AB984B1886184B984B18260AA
S113037084B9E0E8F0E080818160808380818068D6
S11303808083E1E8F0E080818860808380818360FD
S113039080838AE590E090938900809388000E948E
S11303A05E0180E80E94DA0061E182E291E00E944D
S11303B048012FEF37EA81E6215030408040E1F7D1
S11303C000C0000081E00E94DA008FE39FE1019702
S11303D0F1F700C000000E945300109290011092A7
S11303E0980180E80E94DA0061E185E391E00E94CF
S11303F0480180EC0E94DA0061E186E491E00E9409
S113040048010E946600182F882381F08FEB810F2A
S1130410843030F4812F0E947D0181E08093980123
S1130420133221F48091980181110AC09FEF21EECB
S113043034E0915020403040E1F700C00000E1CFAB
S11304408FEF91EE24E0815090402040E1F700C00E
S1130450000080EC0E94DA0068E087E591E00E94E9
S113046048010E9466008983882351F18A3299F4F5
S11304701092900180EC0E94DA0060E180E691E045
S11304800E94480180EC0E94DA0068E087E591E070
S11304900E94480115C0833221F49091900191117A
S11304A019C090ED980F9A3058F40E94110141E060
S11304B050E0BE016F5F7F4F80E991E00E94A60289
S11304C03FEF83EC99E0315080409040E1F700C069
S11304D00000C7CF81E00E94DA008FE39FE101971B
S11304E0F1F700C0000080E80E94DA006FE081E7C5
S11304F091E00E9448019AEA26EE36E981E09150A3
S1130500204030408040D9F7000081E00E94DA00AA
S11305108FE39FE10197F1F700C000006DE081E8EF
S113052091E00E9448019FEF23E234EF9150204074
S11305303040E1F700C0000081E00E94DA008FE360
S11305409FE10197F1F700C0000047CFFB01DC01F8
S11305500D900020E9F711974150504028F0019088
S113056000200D92C9F708951C920895F894FFCFC6
S11305703132334134353642373839432A30234413
S1130580436F74746F6E0053696C6B004C696E65D5
S11305906E002020507265636973696F6E526F6CD0
S11305A06C20202000413A436F74746F6E20423AED
S11305B053696C6B2000433A4C696E656E2020448D
S11305C03A4F74686572004C656E6774683A20002F
S11305D02020202020202020202020202020202017
S11305E000202020526F6C6C696E672E2E2E202006
S11305F0002020202046696E69736865642E00001F
S9030000FC
