S00D0000736C6176652E73726563FC
S11300000C9434000C9451000C9451000C94510045
S11300100C9451000C9451000C9451000C94510018
S11300200C9451000C9451000C9451000C94510008
S11300300C9451000C9453000C9451000C945100F6
S11300400C9451000C9451000C9451000C945100E8
S11300500C9451000C9451000C9451000C945100D8
S11300600C9451000C94510011241FBECFEFD8E022
S1130070DEBFCDBF11E0A0E0B1E0E4E9F4E002C0EE
S113008005900D92A430B107D9F721E0A4E0B1E0C6
S113009001C01D92A832B207E1F70E94A3010C949B
S11300A048020C9400001F920F920FB60F92112475
S11300B08F939F93AF93BF938091180190911901EF
S11300C0A0911A01B0911B010196A11DB11D80934D
S11300D0180190931901A0931A01B0931B01BF91C9
S11300E0AF919F918F910F900FBE0F901F90189515
S11300F0E1E8F0E0808181608083EFE6F0E08081D8
S113010081608083789408954FB7F89480911801A2
S113011090911901A0911A01B0911B0120918400C2
S1130120309185004FBFDC0199278827820F931FE8
S1130130A11DB11DBC01CD01689413F89695879556
S1130140779567951694D1F708954F925F926F92C1
S11301507F928F929F92AF92BF92CF92DF92EF9253
S1130160FF920F931F93CF93DF93CDB7DEB72A97F8
S11301700FB6F894DEBF0FBECDBF10921F011092D0
S11301801E0110921D0110921C014090020150901A
S11301900301052C000C66087708809000019090FC
S11301A001019401990C440B550B2F83388749871F
S11301B05A878C01000F111F880F991F880F991FF0
S11301C0880F991F080F191F5CC00E9484006B01DF
S11301D07C010E9484008090240190902501A090CD
S11301E02601B0902701A7019601281939094A0967
S11301F05B092415350546055705B0F0C092240166
S1130200D0922501E0922601F09227013BB120E231
S113021023272BB920911E0130911F012F5F3F4FDF
S113022030931F0120931E01C0902001D090210122
S1130230E0902201F09023014B015C018C189D0891
S1130240AE08BF08750164018F809884A984BA84BC
S1130250C814D904EA04FB04A0F06093200170934D
S1130260210180932201909323018BB180588BB993
S113027080911C0190911D01019690931D01809322
S11302801C0180911E0190911F018017910744F475
S113029080911C0190911D01801791070CF495CF5A
S11302A02A960FB6F894DEBF0FBECDBFDF91CF9173
S11302B01F910F91FF90EF90DF90CF90BF90AF9080
S11302C09F908F907F906F905F904F900895909340
S11302D0C5008093C40088E18093C10086E08093C8
S11302E0C20008959091C00095FFFCCF8093C60092
S11302F008958091C0008823E4F78091C600089592
S1130300EF92FF920F931F93CF93DF938C017B01A6
S1130310C0E0D0E009C00E9479018A3051F0F801B0
S1130320EC0FFD1F80832196C7010197C817D907D9
S113033094F3C00FD11F1882DF91CF911F910F91B9
S1130340FF90EF900895CF93DF93CDB7DEB7649716
S11303500FB6F894DEBF0FBECDBF87E690E00E94D3
S113036067018AB1806F8AB98BB18F7E8BB98BB1EB
S11303708F7B8BB90E94780064E170E0CE01019616
S11303800E9480016CE270E0CE0101960E94260278
S11303908C01009789F3BE016F5F7F4F7C01E61AE1
S11303A0F70AA7018EE091E00E943102F701E25FB3
S11303B0FE4F1082B8016F5F7F4F49E050E084E048
S11303C091E00E94310284E091E00E940802181634
S11303D0190614F40E94A50084E50E94720188E6BF
S11303E00E94720181E60E94720182E70E947201FA
S11303F08FE60E9472018FE60E94720183E70E94D9
S1130400720188E60E94720181E60E947201B4CFF3
S1130410FC0188279927E89421912032E9F32930B7
S113042010F02E30C8F32B3241F02D3239F4689499
S113043004C00E944002820F911D219120532A3052
S1130440C0F31EF4909581959F4F0895FC0181910E
S1130450861721F08823D9F7992708953197CF017A
S11304600895FB01DC014150504048F001900D9289
S11304700020C9F701C01D9241505040E0F7089593
S11304807AE0979F902D879F802D910D11240895D8
S1070490F894FFCF0A
S1070494E803DC0594
S9030000FC
