S01700004763634170706C69636174696F6E342E7372656358
S11300000C9434000C9451000C9451000C94510045
S11300100C9451000C9451000C9451000C94510018
S11300200C9451000C9451000C9451000C94510008
S11300300C9451000C9451000C9451000C945100F8
S11300400C9451000C9451000C9451000C945100E8
S11300500C9451000C9451000C9451000C945100D8
S11300600C9451000C94510011241FBECFEFD8E022
S1130070DEBFCDBF11E0A0E0B1E0E0E1F4E002C0FA
S113008005900D92AE37B107D9F721E0AEE7B1E0A4
S113009001C01D92A039B207E1F70E946C010C94D3
S11300A006020C940000CF93DF93CDB7DEB76097C0
S11300B00FB6F894DEBF0FBECDBF80E1E0E0F1E003
S11300C0DE01119601900D928A95E1F730E041C06E
S11300D08BB1632F70E041E050E0032E02C0440F67
S11300E0551F0A94E2F7E42F942F909589238BB936
S11300F020E029C086B1A22FB0E090E0022E02C019
S1130100959587950A94E2F780FD1CC086B190E02E
S11301100A2E02C0959587950A94E2F780FFF6CFE0
S11301208BB1E82BEBB9FB01EE0FFF1FEE0FFF1FA6
S113013081E090E08C0F9D1FE80FF91FEA0FFB1F71
S113014080810BC02F5F2430A8F28BB1482B4BB9B0
S11301503F5F343008F4BCCF80E060960FB6F8946B
S1130160DEBF0FBECDBFDF91CF9108959BB19F73CA
S11301709BB995B1907F282F22952F70922B95B91A
S11301809BB190689BB995E09A95F1F700009BB1FB
S11301909F779BB9EFE1F3E03197F1F700C00000DE
S11301A095B1907F8F70892B85B98BB180688BB99D
S11301B0F5E0FA95F1F700008BB18F778BB98FE3F7
S11301C09FE10197F1F700C00000089581E00E94CB
S11301D0B6008FE39FE10197F1F700C00000089596
S11301E09BB19F7390649BB995B1907F282F229502
S11301F02F70922B95B99BB190689BB995E09A9515
S1130200F1F700009BB19F779BB9EFE1F3E03197E1
S1130210F1F700C0000095B1907F8F70892B85B9EC
S11302208BB180688BB9F5E0FA95F1F700008BB1DA
S11302308F778BB98FE39FE10197F1F700C000003E
S11302400895CF93DF93EC0103C021960E94F00040
S113025088818111FACFDF91CF910895CF93C82F70
S113026080938F010E94E600C23471F018F4C13407
S113027031F018C0C33469F0C43481F013C080E194
S113028091E00E9421010EC087E191E00E942101CA
S113029009C08CE191E00E94210104C081E591E054
S11302A00E942101CF9108952FEF89EF90E0215012
S11302B080409040E1F700C0000082E00E94B60058
S11302C088E20E94B6008CE00E94B60086E00E949C
S11302D0B6000E94E60008958AB1806C8AB984B1A0
S11302E08F6184B98AB18F608AB987B1807F87B9F9
S11302F088B18F6088B90E9454018AE587BD83E87C
S113030084BD82E085BD82E291E00E9421012FEF4D
S113031037EA81E6215030408040E1F700C0000018
S11303200E94E60085E391E00E94210180EC0E9496
S1130330B60086E491E00E942101C0E042C00E9420
S113034053009FEB980F9430E0F50E942E01D0E00B
S11303500DC00E945300C82F8FEB8C0F843018F40B
S11303608C2F0E942E01C33209F4D1E0DD2389F3DE
S11303700E94E60087E591E00E94210110927E012F
S11303800E945300C1E08332E1F08A3249F41092B2
S11303907E010E94E60087E591E00E942101F0CFF2
S11303A090ED980F9A3060F7E0917E0191E09E0FF6
S11303B090937E01F0E0E158FE4F80830E94F000AC
S11303C0DFCFCC2309F4BBCF0E94E60080E691E0A6
S11303D00E9421019AEA26EE36E981E091502040FC
S11303E030408040D9F700000E94E60080E791E0A9
S11303F00E9421019FEF23E234EF915020403040CE
S1130400E1F700C000000E94E6008CCFF894FFCF13
S11304104423302A43393837423635344133323174
S1130420436F74746F6E0053696C6B004C696E6536
S11304306E002020507265636973696F6E526F6C31
S11304406C20202000413A436F74746F6E20423A4E
S113045053696C6B2000433A4C696E656E202044EE
S11304603A4F74686572004C656E6774683A200090
S1130470202020526F6C6C696E672E2E2E20200077
S11104802020202046696E69736865642E0092
S9030000FC
