S0180000456E636F64657243616C6962726174652E73726563C5
S11300000C9434000C9448000C9446000C94460064
S11300100C9446000C9446000C9446000C94460044
S11300200C9446000C9446000C9446000C94460034
S11300300C9446000C9446000C9446000C94460024
S11300400C9446000C9446000C9446000C94460014
S11300500C9446000C9446000C9446000C94460004
S11300600C9446000C94460011241FBECFEFD8E038
S1130070DEBFCDBF21E0A0E0B1E001C01D92A330FE
S1130080B207E1F70E94BE000C940B010C9400002F
S11300901F920F920FB60F9211248F939F9381E0BA
S11300A0809300014A9B0BC04B9909C080910101C8
S11300B090910201019690930201809301014A9B61
S11300C00BC04B9B09C080910101909102010197E3
S11300D090930201809301019F918F910F900FBE25
S11300E00F901F90189587E690E09093C500809339
S11300F0C400E1ECF0E0808188618083E2ECF0E010
S11301008081877080838081866080830895909148
S1130110C00095FFFCCF8093C60008950F931F93F2
S1130120CF93DF93CDB7DEB727970FB6F894DEBF32
S11301300FBECDBF4AE0BE016F5F7F4F0E94D60065
S113014000E010E004C00E9487000F5F1F4FE1E051
S1130150F0E0EC0FFD1FE00FF11F80818111F3CF60
S11301608AE00E94870027960FB6F894DEBF0FBE80
S1130170CDBFDF91CF911F910F9108950E9473001D
S11301808AB18B7F8AB98AB1877F8AB9E9E6F0E0C0
S11301908081836080838DB381608DBB78948091EE
S11301A00101909102010E948E00F9CFBB274A30D1
S11301B031F4992322F4BDE2909581959F4F0C94DC
S11301C0E200BB27FB015527AA27880F991FAA1F06
S11301D0A41710F0A41B83955051B9F7A05DAA335E
S11301E008F0A95DA193009779F7B111B193119229
S11301F0CB010C94FB00DC01FC01672F7191772388
S1130200E1F7329704C07C916D9370836291AE17CD
S10D0210BF07C8F30895F894FFCF68
S9030000FC
