S01800004D6F746F7273616E64456E636F6465722E7372656395
S11300000C9434000C9453000C9451000C94510043
S11300100C9451000C9451000C9451000C94510018
S11300200C9451000C9451000C9451000C94510008
S11300300C9451000C9415010C9451000C94510033
S11300400C9451000C9451000C9451000C945100E8
S11300500C9451000C9451000C9451000C945100D8
S11300600C9451000C94510011241FBECFEFD8E022
S1130070DEBFCDBF11E0A0E0B1E0E2E1F7E002C0F5
S113008005900D92A430B107D9F721E0A4E0B1E0C6
S113009001C01D92A831B207E1F70E9432020C940C
S11300A087030C9400001F920F920FB60F92112435
S11300B08F939F9381E0809315014A9B11C04B99C4
S11300C00FC080911601909117010196909317012A
S11300D08093160185B1806285B98BB18F778BB916
S11300E04A9B11C04B9B0FC0809116019091170140
S11300F00197909317018093160185B18F7D85B97F
S11301008BB180688BB99F918F910F900FBE0F9028
S11301101F90189587E690E09093C5008093C400E3
S1130120E1ECF0E0808188618083E2ECF0E08081A2
S11301308770808380818660808308958091C00069
S11301408823E4F78091C60008958091C0008078E8
S113015008959091C00095FFFCCF8093C600089548
S11301600F931F93CF93DF93CDB7DEB727970FB6C7
S1130170F894DEBF0FBECDBF00E010E00E949E00E9
S11301808A3011F08D3061F4E1E0F0E0EC0FFD1FF6
S1130190E00FF11F1082CE0101960E9461030AC094
S11301A0E1E0F0E0EC0FFD1FE00FF11F80830F5F33
S11301B01F4FE4CF27960FB6F894DEBF0FBECDBF16
S11301C0DF91CF911F910F91089510928000E1E883
S11301D0F0E01082808183608083EFE6F0E080812C
S11301E08160808310928500109284007894089531
S11301F00E948A000E94E5008AB18B7F8AB98AB185
S1130200877F8AB98AB1806F8AB98BB18F7E8BB9A7
S11302108BB180648BB9E9E6F0E0808183608083F0
S11302208DB381608DBB789408951F920F920FB6A1
S11302300F9211248F939F93AF93BF9380911101D9
S113024090911201A0911301B09114010196A11D86
S1130250B11D8093110190931201A0931301B093E7
S11302601401BF91AF919F918F910F900FBE0F908A
S11302701F901895EF92FF920F931F932FB7F89446
S11302808091110190911201A0911301B091140178
S1130290BC01552744278091840090918500A0E0FB
S11302A0B0E07A018B01E82AF92A0A2B1B2BC8013A
S11302B0B7012FBF0E94660220E030E040E850E41E
S11302C00E94CC020E9437021F910F91FF90EF9081
S11302D008958F929F92AF92BF92CF92DF92EF9246
S11302E0FF920F931F93CF93DF930091020110911C
S11302F00301C0910001D09101010E943A016B01F8
S11303007C010E943A01AB01BC0180910D019091E6
S11303100E01A0910F01B091100146015701881AF6
S1130320990AAA0ABB0AC801110FAA0BBB0B8816AB
S11303309906AA06BB06B8F0C0920D01D0920E0130
S1130340E0920F01F09210019091050181E089275C
S113035080930501882321F08BB180628BB903C09F
S11303608BB18F7D8BB98091090190910A01A09185
S11303700B01B0910C018A019B01081B190B2A0B7C
S11303803B0BCE01DD0FAA0BBB0B081719072A077D
S11303903B07B8F04093090150930A0160930B01A5
S11303A070930C019091040181E0892780930401EA
S11303B0882321F08BB180688BB903C08BB18F7710
S11303C08BB9DF91CF911F910F91FF90EF90DF9048
S11303D0CF90BF90AF909F908F9008950E94A500FA
S11303E08823C1F00E949E00809308010E949E0011
S11303F002C00E949E008032E1F70E94B0009093F8
S1130400070180930601109217011092160102C091
S11304100E946901209116013091170133231CF4C5
S1130420319521953109409106015091070164E30A
S1130430649FC001659F900D11248997281739077F
S11304403CF3452B71F081E40E94A9008AE00E94EC
S1130450A900109207011092060110921701109240
S1130460160108950E94F8000E94EE01FDCF0E943B
S1130470AB0288F09F5798F0B92F9927B751B0F085
S1130480E1F0660F771F881F991F1AF0BA95C9F714
S113049014C0B13091F00E94C502B1E008950C94EB
S11304A0C502672F782F8827B85F39F0B93FCCF39E
S11304B0869577956795B395D9F73EF49095809591
S11304C0709561957F4F8F4F9F4F0895E89409C0B1
S11304D097FB3EF490958095709561957F4F8F4F73
S11304E09F4F9923A9F0F92F96E9BB279395F69589
S11304F0879577956795B795F111F8CFFAF4BB0F07
S113050011F460FF1BC06F5F7F4F8F4F9F4F16C06A
S1130510882311F096E911C0772321F09EE8872FF4
S1130520762F05C0662371F096E8862F70E060E0B0
S11305302AF09A95660F771F881FDAF7880F969529
S1130540879597F9089557FD9058440F551F59F012
S11305505F3F71F04795880F97FB991F61F09F3FAC
S113056079F087950895121613061406551FF2CFD5
S11305704695F1DF08C0161617061806991FF1CF25
S113058086957105610508940895E894BB2766274C
S11305907727CB0197F908950E94DF020C9450034A
S11305A00E94420338F00E94490320F0952311F081
S11305B00C9439030C943F0311240C94C6020E943A
S11305C0A30270F3959FC1F3950F50E0551F629FEE
S11305D0F001729FBB27F00DB11D639FAA27F00D98
S11305E0B11DAA1F649F6627B00DA11D661F829FBF
S11305F02227B00DA11D621F739FB00DA11D621FA4
S1130600839FA00D611D221F749F3327A00D611DC0
S1130610231F849F600D211D822F762F6A2F1124A2
S11306209F5750409AF0F1F088234AF0EE0FFF1FD5
S1130630BB1F661F771F881F91505040A9F79E3F2C
S1130640510580F00C9439030C94C6025F3FE4F327
S1130650983ED4F3869577956795B795F795E79582
S11306609F5FC1F7FE2B880F911D9695879597F98B
S1130670089597F99F6780E870E060E008959FEF20
S113068080EC089500240A94161617061806090625
S1130690089500240A9412161306140605060895F4
S11306A0092E0394000C11F4882352F0BB0F40F47C
S11306B0BF2B11F460FF04C06F5F7F4F8F4F9F4FBC
S11306C00895FC0188279927E89421912032E9F3C1
S11306D0293010F02E30C8F32B3241F02D3239F48A
S11306E0689404C00E947F03820F911D21912053BE
S11306F02A30C0F31EF4909581959F4F08957AE0B7
S1130700979F902D879F802D910D11240895F89423
S1050710FFCF15
S10707124006E803AE
S9030000FC
